:020000040000fa
:080000000001040000000000f3
:020000040000fa
:0400080004020000ee
:020000040000fa
:04000c0046020000a8
:020000040000fa
:040010008602000064
:020000040000fa
:0400140024020000c2
:020000040000fa
:04001800660200007c
:020000040000fa
:04001c00a602000038
:020000040000fa
:04002000a602000034
:020000040000fa
:04002400a602000030
:020000040000fa
:04002800a60200002c
:020000040000fa
:04002c00a602000028
:020000040000fa
:04003000a602000024
:020000040000fa
:04003400a602000020
:020000040000fa
:04003800a60200001c
:020000040000fa
:04003c00a602000018
:020000040000fa
:04004000a602000014
:020000040000fa
:04004400a602000010
:020000040000fa
:04004800a60200000c
:020000040000fa
:04004c00a602000008
:020000040000fa
:04005000a602000004
:020000040000fa
:04005400a602000000
:020000040000fa
:04005800a6020000fc
:020000040000fa
:04005c00a6020000f8
:020000040000fa
:04006000a6020000f4
:020000040000fa
:04006400a6020000f0
:020000040000fa
:04006800a6020000ec
:020000040000fa
:04006c00a6020000e8
:020000040000fa
:04007000a6020000e4
:020000040000fa
:04007400a6020000e0
:020000040000fa
:04007800a6020000dc
:020000040000fa
:04007c00a6020000d8
:020000040000fa
:04008000a6020000d4
:020000040000fa
:04008400a6020000d0
:020000040000fa
:04008800a6020000cc
:020000040000fa
:04008c00a6020000c8
:020000040000fa
:04009000a6020000c4
:020000040000fa
:04009400a6020000c0
:020000040000fa
:04009800a6020000bc
:020000040000fa
:04009c00a6020000b8
:020000040000fa
:0400a000a6020000b4
:020000040000fa
:0400a400a6020000b0
:020000040000fa
:0400a800a6020000ac
:020000040000fa
:0400ac00a6020000a8
:020000040000fa
:0400b000a6020000a4
:020000040000fa
:0400b400a6020000a0
:020000040000fa
:0400b800a60200009c
:020000040000fa
:0400bc00a602000098
:020000040000fa
:0400c000a602000094
:020000040000fa
:0400c400a602000090
:020000040000fa
:0400c800a60200008c
:020000040000fa
:0400cc00a602000088
:020000040000fa
:0400d000a602000084
:020000040000fa
:0400d400a602000080
:020000040000fa
:0400d800a60200007c
:020000040000fa
:0400dc00a602000078
:020000040000fa
:0400e000a602000074
:020000040000fa
:0400e400a602000070
:020000040000fa
:0400e800a60200006c
:020000040000fa
:0400ec00a602000068
:020000040000fa
:0400f000a602000064
:020000040000fa
:0400f400a602000060
:020000040000fa
:0400f800a60200005c
:020000040000fa
:0400fc00a602000058
:020000040000fa
:04010000a602000053
:020000040000fa
:04010400a60200004f
:020000040000fa
:04010800a60200004b
:020000040000fa
:04010c00a602000047
:020000040000fa
:04011000a602000043
:020000040000fa
:04011400a60200003f
:020000040000fa
:04011800a60200003b
:020000040000fa
:04011c00a602000037
:020000040000fa
:04012000a602000033
:020000040000fa
:04012400a60200002f
:020000040000fa
:04012800a60200002b
:020000040000fa
:04012c00a602000027
:020000040000fa
:04013000a602000023
:020000040000fa
:04013400a60200001f
:020000040000fa
:04013800a60200001b
:020000040000fa
:04013c00a602000017
:020000040000fa
:04014000a602000013
:020000040000fa
:04014400a60200000f
:020000040000fa
:04014800a60200000b
:020000040000fa
:04014c00a602000007
:020000040000fa
:04015000a602000003
:020000040000fa
:04015400a6020000ff
:020000040000fa
:04015800a6020000fb
:020000040000fa
:04015c00a6020000f7
:020000040000fa
:04016000a6020000f3
:020000040000fa
:04016400a6020000ef
:020000040000fa
:04016800a6020000eb
:020000040000fa
:04016c00a6020000e7
:020000040000fa
:04017000a6020000e3
:020000040000fa
:04017400a6020000df
:020000040000fa
:04017800a6020000db
:020000040000fa
:04017c00a6020000d7
:020000040000fa
:04018000a6020000d3
:020000040000fa
:04018400a6020000cf
:020000040000fa
:04018800a6020000cb
:020000040000fa
:04018c00a6020000c7
:020000040000fa
:04019000a6020000c3
:020000040000fa
:04019400a6020000bf
:020000040000fa
:04019800a6020000bb
:020000040000fa
:04019c00a6020000b7
:020000040000fa
:0401a000a6020000b3
:020000040000fa
:0401a400a6020000af
:020000040000fa
:0401a800a6020000ab
:020000040000fa
:0401ac00a6020000a7
:020000040000fa
:0401b000a6020000a3
:020000040000fa
:0401b400a60200009f
:020000040000fa
:0401b800a60200009b
:020000040000fa
:0401bc00a602000097
:020000040000fa
:0401c000a602000093
:020000040000fa
:0401c400a60200008f
:020000040000fa
:0401c800a60200008b
:020000040000fa
:0401cc00a602000087
:020000040000fa
:0401d000a602000083
:020000040000fa
:0401d400a60200007f
:020000040000fa
:0401d800a60200007b
:020000040000fa
:0401dc00a602000077
:020000040000fa
:0401e000a602000073
:020000040000fa
:0401e400a60200006f
:020000040000fa
:0401e800a60200006b
:020000040000fa
:0401ec00a602000067
:020000040000fa
:0401f000a602000063
:020000040000fa
:0401f400a60200005f
:020000040000fa
:0401f800a60200005b
:020000040000fa
:0401fc00a602000057
:020000040000fa
:100200002f8220000eff27000e0188000000000052
:10021000000020000000e000020032000001200089
:100220002002880014000700ca0007000000e00058
:1002300003003a0080822000010020000200370005
:100240000000200001002000810f7000010032003a
:1002500014000700000020000000e000020032004f
:1002600000000200000000004c0502000000000039
:100270000040da000000fe004440a90020002000f9
:100280000000e00003003200100020009001880010
:100290004440a800000006008a1f78008b1f7800e9
:1002a00000000600a1028800800478000000eb0036
:1002b0001f003700e284440054a0b4009905ba003e
:1002c000e284440054a0b4009906ba00e2844400d9
:1002d00054a0b4000006eb00476fde00fd07b2003b
:1002e000ae018800636ce10003003a00eaff0700fa
:1002f0000000eb000e003700606ce10008003a00df
:10030000004deb000a05e800020039003420ec0043
:100310000af0a0008b05e900f9ff3e000400370059
:100320006168e100010032000086eb000b0007006d
:1003300019c7ba001905ba000e04e00003003a001c
:100340000a00e000dbff3a0000000600fe07b200f2
:10035000ae0288008a047800f5ff37000cd0a300b5
:10036000e20f4d001c00390089027800354dba00bb
:100370000a05e800020039003420ec000af0a00071
:100380008b05e9000f003200254dba000a05e80090
:10039000020039003420ec000af0a0008b05e900cf
:1003a000080032000c00e0000600320015cdba0053
:1003b0000a05e800020039003420ec000af0a00031
:1003c0008b05e9008984e80054a0b4000b00e0002c
:1003d000e2ff3a00000006009902ba00055d7800cd
:1003e0008b05e900f7ff3200c82ade00055d7800c2
:1003f0008b05e900f3ff32000c00e000f1ff320052
:1004000019ddba00eeff37003600f800809fbe000d
:10041000829fbe00849fbe00869fbe000000fa003f
:100420008020a9000000eb00fd0207000080fa0018
:100430004f03be004f02be004f01be004f00be0082
:100440003600f900004006003600f800809fbe002c
:10045000829fbe00849fbe00869fbe000000fa00ff
:10046000f40207008040a90010002000ec02070001
:100470000080fa004f03be004f02be004f01be00d5
:100480004f00be003600f900004006003600f800bc
:10049000809fbe00829fbe00849fbe00869fbe00dc
:1004a0000000fa008060a90020002000dc020700a4
:1004b0000080fa004f03be004f02be004f01be0095
:1004c0004f00be003600f900004006003600f8007c
:1004d000809fbe00829fbe00849fbe00869fbe009c
:1004e0000000fa008080a90030002000cc02070044
:1004f0000080fa004f03be004f02be004f01be0055
:100500004f00be003600f900004006003600f8003b
:10051000809fbe00829fbe00849fbe00869fbe005b
:100520000000fa008600a90070002000bc0207004d
:100530000080fa004f03be004f02be004f01be0014
:100540004f00be003600f900004006000040da000f
:080550000000fe0000000500a0
:020000040000fa
:100558000600fa0000017800414798004e409000dc
:100568008080fb00f00320000088b900800078003c
:10057800f000200080017800110009008300d800f5
:10058800004f78001e80fb004300de00004078002a
:10059800104798001e80fb000000d1000040780042
:1005a80063406000204798009e40780061c060006a
:1005b8004400dd00304798000e00e8008200780013
:1005c800904878008100e8000000e8009048780032
:1005d8008100e8000000e800904878008100e80009
:1005e8000000e800020078000080fa000000060021
:1005f8000200fa00000f7800df26a900a206a90071
:100608001e00780000407800d60107008002200014
:100618000100200072020700df26a8000080fa000f
:10062800000006000200fa00000f7800df26a9008b
:10063800a206a8001e00780000407800c901070043
:10064800800220000100200065020700df26a800c4
:100658000080fa00000006000000fa007b46a900ae
:1006680000e82300010020005d020700ca66a90017
:10067800800220000100200059020700ca66a80075
:1006880000e823000100200055020700a386a80007
:1006980000482800e101200051020700f00a20006c
:1006a800d3ff0700300b2000d1ff07000000eb004c
:1006b800dcff0700d00f2000cdff0700200120003d
:1006c800d8ff0700d00f2000c9ff0700100b20003b
:1006d800d4ff0700000a2000c5ff070060072000bc
:1006e800d0ff0700100a2000c1ff07000008200003
:1006f800ccff0700200a2000bdff070000022000f1
:10070800c8ff0700a00c2000b9ff0700f005200073
:10071800c4ff0700400b2000b5ff0700000a2000b7
:10072800c0ff0700500b2000beff07005005200047
:10073800bcff07000080fa00000006000800fa006d
:10074800000f7800110798002207980033079800d7
:1007580050012000a6ff07001e0090007000400016
:10076800b0ff07001e00900070004000adff0700ba
:10077800500720009eff07001e007800a9ff070011
:100788001e007800a7ff0700c005200098ff07009b
:100798005e4090000080fb00e70060004e40900043
:1007a8000080fb004301dd00f00f20000000610025
:1007b800010070009bff07006e4090000080fb0066
:1007c800ff0060005e4090000080fb004501dd00f6
:1007d800f00f2000000061000100700091ff070089
:1007e8000080fa00000006001200fa00404f98004e
:1007f800514f9800624f9800734f9800040f98006b
:10080800500120007aff07004e4890000000fb00ce
:100818007000400083ff07004e4890000000fb0076
:10082800f00040006e4890000000fb00008040008f
:100838007cff0700500720006dff07005e4890000e
:100848000000fb0077ff07005e4890008000fb0077
:100858007e4890000000fb000080400071ff070008
:10086800c005200062ff07000000eb00000f7800c1
:10087800570037000000eb00100798004e003700c3
:100888007e4890008000fb001e0078000088b900b8
:10089800800078001e009000008040008e089000c4
:1008a80000804000104078006f406000404798008a
:1008b800ce4090006600470025ff07007e4090006c
:1008c8000080fb00e30060006e4090000080fb00a9
:1008d800670060004200dd000100700051ff070062
:1008e8000e4890000080fb004400de0000407800c5
:1008f8000080fb00e30060007e4090000080fb0069
:10090800630060004200dd000100700045ff070041
:100918007e4890008000fb001e0078000088b90027
:10092800800078001e009000008040008e08900033
:1009380000804000104078008000fb00000f20007d
:10094800008060004480de0050479800de40900040
:1009580069004700fefe07002e4890000080fb005b
:10096800e30060001e4890000080fb006700600004
:100978004200dd00010070002aff07003e48900099
:100988000080fb004400de00004078000080fb008f
:10099800e30060002e4890000080fb0063006000c8
:1009a8004200dd00010070001eff07001e009000dd
:1009b8000000e800100798006e4890008000fb00d7
:1009c8001e009000808f5000adff3c001e0fe80015
:1009d8007e4890000000fb009e0f5000a5ff3c00e1
:1009e8000080fa00000006000200fa00c00520009e
:1009f800fffe07000040eb00004f78000f003700b3
:100a08000040eb0010479800070037000000eb009b
:100a180004ff07000000eb0002ff07001e409000e3
:100a28000040e800104798009e409000f0c7b300cf
:100a380080cf5000f5ff3a001e4fe800f0c7b30022
:100a48009e40780080cf5000edff3a000080fa0009
:100a5800000006000000fa0050012000e4fe070034
:100a68000000eb00effe0700f0072000edfe070096
:100a780050072000defe07000000eb00e9fe07003b
:100a8800f0072000e7fe07000080fa0000000600db
:100a98009200fa0074010700effe0700d2ff07007a
:100aa800e2004700470009008018eb000040eb0017
:100ab800004f7800150037000040eb001047980001
:100ac8000d0037009e00fb00000620000088b900da
:100ad800800078001e4090000000fb00008040006d
:100ae80000004700b1cab300214098001e409000a2
:100af8000040e800104798009e409000f0c5b30001
:100b080080cf5000efff34001e4fe800f0c5b3005f
:100b18009e40780080cf5000e7ff34000e80e80048
:100b28000002780003c6b30002c6b3008040eb00a1
:100b38000040eb002cff0700f8ff37000000fa0028
:100b4800f623ef00f823ef00fc23ef000424ef0066
:100b58000824ef000a24ef000c24ef000e24ef0015
:100b680010122800a01f88000080fa00000006006c
:100b78000400fa00000f7800110798000000000038
:100b8800e01f8000620060000000e000fcff3a0007
:100b98001e007800104078000080fb0000208800cc
:100ba80000000000e11f80000002200000806000bb
:100bb8000000e000fbff3a00002080008040780041
:100bc8001e009000014878000080fa00000006002e
:100bd8001800fa00100f9800210f9800320f9800a3
:100be8000000eb00000f78000000eb0010079800f1
:100bf8000000eb00700798000000eb00000f980061
:100c080010002000600798001e0890000000e00017
:100c180005003a000000eb005007980070004700fc
:100c28002007980004003700ee0090005107980054
:100c38009e089000210798003e0890000000e00000
:100c480005003a000000eb00400798006e004700de
:100c58003007980005003700ee0090004107980023
:100c6800be0890003107980000000000e01f8000d7
:100c7800620060000000e000fcff3a001d00370041
:100c8800e01f8000620060000000e00009003a00f8
:100c98002e009000104078000080fb0000208800a3
:100ca800ae0090005e009000008040002007980091
:100cb8001e0fe800e11f8000000220000080600095
:100cc8000000e0000b003a0000208000804078001f
:100cd8003e00900001487800be0090004e00900051
:100ce80000804000300798001e0090000000e800d7
:100cf800100798002e0890009e007800808f500002
:100d0800dfff390010003700e11f800000022000db
:100d1800008060000000e0000b003a000020800026
:100d2800804078003e00900001487800be009000a6
:100d38004e00900000804000300798001e00900090
:100d48000000e800100798009e0090002e08900010
:100d5800808f5000ecff39001e0078000080fa00f8
:100d6800000006000400fa00204798000e80e80002
:100d78008e0078007eff07001e4078000080fa0091
:100d8800000006000600fa00000f7800110798001e
:100d9800220798002e0190009e0090001e00780007
:100da8008bff07000080fa00000006000000fa0030
:100db800e01f80000080fa00000006000000fa0032
:100dc80000002800303388007a26ef008e26ef00d6
:100dd800a226ef00b626ef00ca26ef00de26ef00b7
:100de800f06f2c0010338800f0bf2f00b03388005c
:100df800e001270050348800e0ff2e00f03488001e
:100e0800f03f200090358800701b230030368800a2
:100e1800f0082f00d03688007426ef008826ef00ef
:100e28009c26ef00b026ef00c426ef00d826ef007e
:100e3800ec26ef007226ef008626ef009a26ef00d8
:100e4800ae26ef00c226ef00d626ef00ea26ef0016
:100e58006826ef007c26ef009026ef00a426ef001e
:100e6800b826ef00cc26ef00e026ef00006c20004b
:100e780050338800f0b32f00f033880000012200bf
:100e880090348800000c20003035880000212000b4
:100e9800d0358800e226ef0001088000f00b200022
:100ea800008160006004200071052000031020000c
:100eb800804978008149780082497800413f800064
:100ec800f00f28000080600000b0a000403f8800bc
:100ed800c13d800000fc2f0000806000a001b3002d
:100ee800c03d8800313f8000f00f280080806000fe
:100ef8000070200001007000303f8800000880006a
:100f0800000178000260a000600420007105200044
:100f180003102000804978008149780082497800d0
:100f28000080fa00000006000000fa00000023001c
:100f3800100888000621ef006821ef006a21ef0001
:100f48000821ef0000702000500888000c21ef00f5
:100f58000e21ef007821ef007a21ef007c21ef00cd
:100f68007e21ef008021ef008221ef008421ef0035
:100f78008621ef001200200080072000a109200030
:100f88001310200080497800814978008249780050
:100f980012002000600420007105200003102000ca
:100fa8008049780081497800824978000000000073
:100fb80000088000610060000000e000fcff3a00cb
:100fc800000000000108800000022000008060008e
:100fd8000000e000fbff32000080fa00000006007d
:020000040000fa
:100fe800f03fb1000180b10006003500ee030900b2
:100ff80000000000403fb1000180b100fbff3d0050
:101008001000b000203fb000020035000080090049
:081018000000000000000600ca
:020000040000fa
:101020000200fa00000f78009e007800014088005e
:10103000ffff37000000fa002080200080077800c2
:10104000a0812000000188000080fa000000060056
:020000040000fa
:1010500002080000200000008000000000080000de
:101060000200000082000000ffff000000000000fe
:020000040000fa
:101070000000fa0053ff070004000700acff070060
:10108000b0fe07000080fa00000006000000fa0031
:081090000080fa0000000600d8
:020000040000fa
:020000040015e5
:047e0000ffffff0081
:020000040000fa
:020000040015e5
:047e2000ff1f000040
:020000040000fa
:020000040015e5
:047e300018ffff0038
:020000040000fa
:020000040015e5
:047e380067ffff00e1
:020000040000fa
:020000040015e5
:047e40009fffff00a1
:020000040000fa
:020000040015e5
:047e4800ffffff0039
:020000040000fa
:020000040015e5
:047e5000deffff0052
:020000040000fa
:020000040015e5
:047e5800ffffff0029
:020000040000fa
:020000040100f9
:04300000ffffff00cf
:00000001FF
